:020000040800F2
:10000000603200204D02000831260008A9240008B3
:100010002D260008450400086D2A00080000000095
:100020000000000000000000000000003926000869
:100030009104000800000000352600083D26000855
:1000400067020008670200086702000867020008EC
:1000500067020008670200086702000867020008DC
:1000600067020008670200086702000867020008CC
:1000700067020008670200086702000867020008BC
:100080006702000867020008670200086D040008A4
:1000900049040008550400086104000867020008CC
:1000A000670200086702000867020008670200088C
:1000B000670200086702000867020008670200087C
:1000C000670200086702000867020008670200086C
:1000D000670200086702000867020008670200085C
:1000E000670200086702000867020008670200084C
:1000F000670200086702000867020008670200083C
:10010000670200086702000867020008670200082B
:1001100067020008670200080D2700086702000850
:1001200067020008790400086702000867020008F7
:1001300067020008670200086702000867020008FB
:1001400067020008670200086702000867020008EB
:10015000670200088504000867020008612A000899
:1001600067020008670200086702000867020008CB
:10017000670200086702000867020008000000002C
:1001800067020008670200086702000867020008AB
:10019000670200086702000867020008670200089B
:1001A00000000000000000006702000800F002F8F4
:1001B00000F03CF80AA090E8000C82448344AAF1C5
:1001C0000107DA4501D100F031F8AFF2090EBAE8C3
:1001D0000F0013F0010F18BFFB1A43F0010318477B
:1001E0001830000038300000103A24BF78C878C1B9
:1001F000FAD8520724BF30C830C144BF04680C602D
:10020000704700000023002400250026103A28BF74
:1002100078C1FBD8520728BF30C148BF0B60704778
:100220001FB502F0C7FF1FBD10B510BD00F0D0F81C
:100230001146FFF7F5FF02F0B5FC00F0EEF803B44D
:10024000FFF7F2FF03BC00F0F5F800000948804713
:1002500009480047FEE7FEE7FEE7FEE7FEE7FEE7A8
:10026000FEE7FEE7FEE7FEE704480549054A064BC0
:1002700070470000F9260008AD0100086002002068
:1002800060320020601200206012002053EA020C4D
:1002900000F069802DE9F04B4FF00006002B1FBFE6
:1002A000B3FA83F503FA05F424FA05F65E4012BFAB
:1002B0001643B2FA82F502FA05F4C5F120051EBF15
:1002C00022FA05FC44EA0C04203556EA044C4FEAB5
:1002D000144418BF641C4FF000084FF0000990420E
:1002E00071EB030C39D3002919BFB1FA81F701FA78
:1002F00007F6B0FA80F700FA07F6C7F120071EBF2D
:1003000020FA07FC46EA0C062037B6FBF4FCA7EB04
:100310000507103F07F01F0BCBF120062CFA06F65D
:100320000CFA0BFB44BFB3460026202FA4BF5E4649
:100330004FF0000B5BEA060C08BF4FF0010B19EB06
:100340000B0948EB0608ABFB027C06FB02CC0BFB5F
:1003500003CCC01B71EB0C01C1E70B4602464146C2
:100360004846BDE8F08B13B5084318BF4FF0FF3087
:100370000146AFF30080BDE81C4070474FF000021B
:1003800000B5134694469646203922BFA0E80C508B
:10039000A0E80C50B1F12001BFF4F7AF090728BF66
:1003A000A0E80C5048BF0CC05DF804EB890028BFE2
:1003B00040F8042B08BF704748BF20F8022B11F00B
:1003C000804F18BF00F8012B704770477047704787
:1003D000754600F02BF8AE4605006946534620F0FE
:1003E0000700854618B020B5FFF73EFFBDE8204066
:1003F0004FF000064FF000074FF000084FF0000BE1
:10040000AC46ACE8C009ACE8C009ACE8C009ACE84F
:10041000C00921F007018D46704710B50446AFF3BF
:1004200000802046BDE81040FFF709BF0048704734
:100430003800002001491820ABBEFEE7260002006C
:1004400070470000FEE7000040F2A000C2F200008A
:1004500000F09CB940F2A000C2F2000000F096B992
:1004600040F2A000C2F2000000F090B940F2A000FB
:10047000C2F2000000F08AB940F2C800C2F20000E7
:1004800000F064BC40F22810C2F2000000F05EBC34
:100490007047000072B600BFFEE7000090F8202011
:1004A000013A012A08D8006800F1140200201368FC
:1004B00019431160704700BF00F1240201204FF47E
:1004C00080211368194311607047000010B590F83F
:1004D00020E0D0F800C0AEF1010EBEF1010FDCF853
:1004E00008E011D81EF0E05F18D0CEF3016E0120B5
:1004F00000FA0EF018608B68D3B14868CC6844EA03
:10050000C000034318E000BF00F1240101204FF4B4
:1005100080220B681A430A6010BD00BF00F124015D
:1005200001204FF400120B681A430A6010BD00BF8F
:100530000868CB6843EA40530CEB0E10C0F88031DA
:100540000B69C0F88431097D012905D100F5C2711C
:100550000B6843F480730B605168C0F88C1112680B
:1005600000F5C071C0F88821002001220B681A43F1
:100570000A6010BDB0B590F82020013A012A2FD8AA
:1005800046F20060C4F20000026842F0010202601C
:10059000026822F47C520260D1F814E0CC694A6A05
:1005A0000368012C43EA022202600EF01F024FF0A2
:1005B000010303FA02F2C3696FEA020C23EA0203A1
:1005C000C36113D02CBBC36803EA0C03C360CB68C0
:1005D0008C8844EA034300EBCE0423640B4611E00D
:1005E000416A41F4802141620120B0BDC3681343D8
:1005F000C3600B688C8844EA034300EBCE04236499
:1006000001F10C038C681B8843EA044300EBCE0421
:10061000636443688D6943EA0204D1F810E0096A13
:10062000002D08BF03EA0C0444604369BEF1000FCB
:1006300043EA020408BF03EA0C040129446102D121
:10064000C1691143C161016821F00101016000200D
:10065000B0BD00007047000010B590F82040013C8C
:10066000012C7BD8D0F800C0002900F08180DCF894
:100670001040A40700F081800CEB011CDCF8B041B5
:100680000CF5D87E14F004049460DCF8B04119BF76
:10069000E4085460640D1460DEF800400CF5DA7E66
:1006A00004F00204D460DCF8B44124075ABFDEF839
:1006B000004004F00F0408241461DEF80040002913
:1006C000C4F307249461DEF800404FEA14445461F7
:1006D000DCF8B8211A70026802EB0112D2F8B821D6
:1006E0004FEA12225A70026802EB0112D2F8B821C6
:1006F0004FEA12429A70026802EB0112D2F8B82156
:100700004FEA1262DA70026802EB0112D2F8BC21E1
:100710001A71026802EB0112D2F8BC214FEA1222D0
:100720005A71026802EB0112D2F8BC214FEA124260
:100730009A71026802EB0112D2F8BC214FEA1262F0
:10074000DA71006814BF00F1100100F10C01002003
:1007500020220B681A430A6010BD00BF00F124017B
:1007600001204FF480220B681A430A6010BD00BFBD
:10077000DCF80C40A4077FF47FAF00F124010120D6
:100780004FF400120B681A430A6010BD2DE9F04FB8
:1007900081B0044600684669D0F804908768D0F8B4
:1007A0000CB0D0F810A0D0F81880F10704D10025C3
:1007B00030071DD424E000BFF90710D00121BA078B
:1007C000816009D4780700F1AF80380700F1B68066
:1007D000204600F053FA02E0204600F051FA0025CE
:1007E000F80500F18780F80300F1B180300707D5E4
:1007F0001BF0100004D0206845F400751021C16082
:10080000700708D51BF0080005D020680821C160DA
:10081000204600F0B9F9B00706D52068C068800707
:1008200002D0204600F0B2F9700607D51AF0100089
:1008300004D0206845F4806510210161B00608D518
:100840001AF0080005D0206808210161204600F058
:10085000E1F9F00606D520680069800702D020463D
:1008600000F0DAF9B00308D519F0100005D02068BF
:1008700010214160204600F0D1F9F00308D519F0AD
:10088000080005D0206808214160204600F002FAE7
:10089000300440F19B805FEA497040F1948006F497
:1008A000807008EA102028435FEA8871014648BF3B
:1008B00041F00201B20558BF01465FEA48700D469B
:1008C00048BF45F00405700558BF0D46300540F19E
:1008D0007A8018F0700000F0768010380009052842
:1008E0006CD8DFE800F003595D61656945F00805E3
:1008F00064E000BF20684FF48071BA0581600BD4BA
:10090000780515D438051DD4204600F0BBF9F8034E
:100910007FF56CAF1BE000BF204600F0B5F9F8038F
:100920007FF564AF13E000BF4FF4006558E700BFE8
:1009300005F50055F8037FF559AF08E04FF48055F1
:100940004EE700BF05F58045F8037FF54FAF2068FF
:100950004FF48031BA0381600AD4780310D438038D
:1009600014D4204600F092F930073FF541AF47E735
:10097000204600F08DF930073FF53AAF40E700BF61
:1009800005F5004530073FF533AF39E705F580350C
:1009900030073FF52DAF33E745F010050EE000BFFF
:1009A00045F020050AE000BF45F0400506E000BF25
:1009B00045F0800502E000BF45F48075206881693C
:1009C00021F07001816120680421416055B1606AA5
:1009D00040EA05012046616201B0BDE8F04FFFF733
:1009E00039BE00BF01B0BDE8F08F0000B0B5C8B19E
:1009F000044690F8200010B9204600F071F82068F5
:100A0000016841F00101016000F006FC054600BFED
:100A100020684168C90707D100F0FEFB401B0B2886
:100A2000F6D312E00120B0BD016821F0020101609F
:100A300000F0F2FB054600BF2068416889070DD52C
:100A400000F0EAFB401B0B28F6D3606A052140F456
:100A500000306062012084F82010B0BD217E026861
:100A6000012922F0800208BF80320260617E0268A4
:100A7000012922F0400208BF40320260A17E0268D4
:100A8000012922F0200208BF20320260E17E0268C4
:100A9000012922F0100218BF10320260217F026883
:100AA000012922F0080208BF08320260617F026853
:100AB000012922F0040208BF04320260D4E901C215
:100AC000D4E9033561691A432A431143ACF10102A9
:100AD0001143C16100200121606284F82010B0BD83
:100AE00080B586B0016846F20040C4F20000814241
:100AF00002D006B080BD00BF002143F63002019154
:100B0000C4F20202136900F5D43043F0007313619C
:100B1000136903F000730193019B0191136843F083
:100B2000080313601268022302F008020192019A7E
:100B3000CDE9023109210322059101A90192049214
:100B400000F096FA13200021002200F0E9FB1320A8
:100B500000F0D2FB14200021002200F0E1FB142061
:100B600000F0CAFB15200021002200F0D9FB15205F
:100B700000F0C2FB16200021002200F0D1FB16205D
:100B800000F0BAFB06B080BD70470000B0B540F27F
:100B9000342440F2A00040F21822C2F20004C2F253
:100BA0000000C2F2000200212346FFF755FD40F28B
:100BB0000C05C2F200052846214601F059FFA8683D
:100BC0004FF4B471484300EE100A95ED031AB8EEE5
:100BD000C00A95ED082A31EE000A95ED093ABDEEFE
:100BE000C00A40F2980110EE100AC2F20001BDEEF8
:100BF000C20A087010EE100ABDEEC30A487010EE6B
:100C0000100A95ED0A0A8870BDEEC00A10EE100AAF
:100C1000C870B0BD7047000070470000704700000A
:100C2000B0B5044690F8200001281DD1022084F8B8
:100C300020002068016821F00101016000F0ECFA59
:100C4000054600BF20684068C00713D000F0E4FAF2
:100C5000401B0B28F6D3606A40F400306062052028
:100C600084F820000120B0BD606A40F4002060627A
:100C70000120B0BD00206062B0BD000070470000E0
:100C80007047000070470000704700007047000088
:100C9000704700007047000070B5866D044600F094
:100CA000BBFA94F83510022928D105462068216C3A
:100CB000026822F016020260426922F0800242615C
:100CC00009B9A16C19B1016821F00801016001683E
:100CD00021F00101016000BF20680068C00715D045
:100CE00000F09AFA401B0628F6D320206065032006
:100CF00084F83500002184F8341070BD80206065D0
:100D00000120002184F8341070BD00BFE06D3F2148
:100D100001FA00F0B060012084F8350000200021C5
:100D200084F8341070BD000090F83510022909D104
:100D3000052180F835100068016821F0010101608B
:100D4000002070478021416501207047F0B581B0D7
:100D500004460020009040F20800C2F20000026841
:100D6000D4E9166048F2B51337680821C1F64E334E
:100D700081403942A2FB03250CD0226813685B072F
:100D800008D5136823F004031360B160616D41F06E
:100D90000101616501218140394208D02268526910
:100DA000120604D5B160616D41F002016165042154
:100DB0008140394208D022681268920704D5B16098
:100DC000616D41F00401616510218140394217D005
:100DD00020680268120713D5B160026801685203E7
:100DE00008D4C90508D4016821F008010160216C0C
:100DF00021B905E008033FD4216C09B1204688479A
:100E0000E16D202000FA01F23A4241D020680368E7
:100E1000DB063DD5B26094F835300268052B1BD156
:100E200022F016020260426922F080024261226CC6
:100E30000AB9A26C1AB1026822F0080202603F20CF
:100E40008840B060012084F83500216D0020002921
:100E500084F8340052D157E00168520310D4C90518
:100E600012D4016821F010010160012084F83500DE
:100E7000002084F8340007E0A16C0029BED1BFE750
:100E8000080301D4616C00E0E16B09B1204688479A
:100E9000606DC8B3606DC0072ED0052084F83500A2
:100EA0002068A90A026822F001020260009A013259
:100EB0008A4200921AD80268D20717D0009A0132EB
:100EC0008A42009212D80268D2070FD0009A0132EB
:100ED0008A4200920AD80268D20707D0009A0132EB
:100EE0008A42009202D80268D207DFD1012084F83A
:100EF0003500002084F83400E16C29B1204601B0AF
:100F0000BDE8F040084700BF01B0F0BD2DE9F04159
:100F1000044600F081F9ECB10546022084F8350062
:100F20000020216884F83400086820F0010008607F
:100F300021680868C00711D000F06EF9401B052831
:100F4000F6D9032520230320636584F83550BDE8D6
:100F5000F08100BF0120BDE8F08100BF086848F2C1
:100F60003F02CFF21002D4E9013500EA020C04F18D
:100F70000C0898E8C10143EA0C032B431843D4E959
:100F8000072E304338431043626A40EA0E00042AB9
:100F900040EA08031CD1206BD4E90A2E40EA0E0077
:100FA000184308604869BEF1000F20F0030040EAD2
:100FB000020040F0040C11D0B8F5005F36D0B8F153
:100FC000000F45D1022A46D0012A3BD032B942E077
:100FD0000B60486920F0070040EA020C01F0F800BD
:100FE0004AF6AB221038CAF6AA22A0FB02231A093D
:100FF00043F2F013C0F600039A5C40F2FF335F281F
:101000004FF03F00C1F814C021EA030100FA02F0DA
:1010100088BF0431C4E9161288600023012500202E
:10102000636584F83550BDE8F08100BF032AD5D848
:10103000012540230120DFE802F0030E030500BF75
:1010400082E700BFAEF1C070B0FA80F0400904E062
:10105000032A04D3C2D1CEF300600028BED00125FC
:1010600040230120636584F83550BDE8F08100001D
:101070002DE9F04F82B000F13E4242F2004502F10C
:10108000FF77C4F202050A2243F6004E4FEAB72664
:10109000A84208BF0922C4F2010E092E38BF4FEA48
:1010A000B7220125002600274FF00008009208E033
:1010B00008F101080437B8F1100F06F1020600F03C
:1010C000A7800C6805FA08F914EA090FF0D0D1F8E6
:1010D00004B003220BF0030CACF10104B240012C6C
:1010E0006FEA020A10D88268CC6802EA0A02B440A9
:1010F000224382604268CBF3001422EA090204FA18
:1011000008F42243426005E0BCF1030F02D14FF026
:10111000030C20E0C2688C6802EA0A02B440224351
:10112000BCF1020FC26016D16FF0030202EA58024E
:101130000244D2F820C007F01C050F230C69AB4015
:101140002CEA030304FA05F52B431362D1F804B02B
:1011500001250BF0030C02680CFA06F302EA0A02FE
:101160001A431BF4403F0260A2D0002243F644031E
:101170000192C4F202031A684FF6084C42F480420E
:101180001A601A68CFF6FF7C02F480420192019A3D
:1011900028F00302724452F80C3007F00C050F24BB
:1011A000AC40A343009C04FA05F52B4342F80C30F5
:1011B000DEF808204B6842EA090543F60C4CDC02D5
:1011C00058BF22EA0905CEF80850C4F2010CDCF839
:1011D00000209C0242EA090558BF22EA0905CCF822
:1011E0000050DEF804209C0342EA090558BF22EAB9
:1011F0000905CEF80450DEF80020DB0342EA0905B9
:1012000058BF22EA0905CEF80050012550E700BF7B
:1012100002B0BDE8F08F000040F25C20C2F2000096
:101220000068704740F2000040F25C21C2F200000A
:10123000C2F2000100780A6810440860704700009C
:1012400080B543F60040C4F20200016841F4007129
:101250000160016841F480610160016841F48071BE
:101260000160032000F088F80F2000F005F800F07E
:1012700027F8002080BD000070B540F20006C2F2E1
:10128000000640F208013278C2F200014FF47A738E
:101290000968B3FBF2F20446B1FBF2F1084600F034
:1012A00081FB0F2C4FF0010508D838B94FF0FF3003
:1012B00021460022002500F033F87460284670BDF6
:1012C00082B0002043F640010190C4F202014A6856
:1012D00042F480424A604A6802F480420192019AD4
:1012E0000090086840F080500860086800F0805066
:1012F0000090009802B07047002848BF7047C1B204
:1013000000F01F00012202FA00F04EF20012CEF2AD
:10131000000242EAD10121F0030108607047000099
:1013200010B54EF60C5CCEF2000CDCF80030C3F3C6
:10133000022E8EF00704042C28BF0424BEF1030300
:101340004FF0FF3E0EFA04F438BF0023A14399404A
:101350000EFA03F39A43114300F00F0200F16043C9
:101360000901043A03F564436244002848BF02F1CE
:101370000C03197010BD00004EF60C51CEF20001A6
:101380000A684FF6FF031A4060F30A2242F08060B9
:1013900040F0FD700860704770B582B00020019089
:1013A00043F64000C4F202000168402641F080513B
:1013B00001600068C4F20E2600F080500190019890
:1013C00047F204050120C4F200053060FFF724FF56
:1013D000044600BF2868C00306D4FFF71DFF001BAA
:1013E000B0F57A7FF6D90EE001207060FFF714FFA8
:1013F000044600BF2868800308D4FFF70DFF001BD8
:10140000B0F57A7FF6D9032002B070BD002002B09B
:1014100070BD00002DE9F041002800F08B8043F6FC
:101420000808C4F202080446D8F8F8030D4600F094
:101430000F00884207D288F8F853D8F8F80300F074
:101440000F00A84276D12068810717D5410705D53E
:10145000D8F8001041F4E051C8F80010010705D594
:10146000D8F8001041F46041C8F80010D8F8001016
:10147000A26821F0F0011143C8F80010C0073FD165
:10148000D8F8F80300F00F00A84207D988F8F853FD
:10149000D8F8F80300F00F00A8424BD120684107AC
:1014A00007D5D8F80010E26821F4E0511143C8F8DC
:1014B0000010000708D5D8F80000216920F460402A
:1014C00040EAC100C8F8000000F07CF8D8F800102D
:1014D00043F2D812C1F30311C0F60002515C40F28E
:1014E000080220FA01F140F20400C2F20000006894
:1014F000C2F200021160FFF7BFFE0020BDE8F081DC
:101500006068811E022907D258F8081C89015CBF57
:101510000120BDE8F08111E0012807D158F8081C2E
:1015200089035CBF0120BDE8F08107E058F8081C82
:10153000890703D40120BDE8F08100BFD8F800106E
:1015400021F003010843C8F80000FFF765FE0646D6
:1015500041F28837D8F80000616800F00C00B0EB69
:10156000810F8DD0FFF758FE801BB842F2D90320BF
:10157000BDE8F08140F2080043F60801C2F2000025
:10158000C4F202010068096843F2E812C1F3822143
:10159000C0F60002515CC8407047000040F20800ED
:1015A00043F60801C2F20000C4F2020100680968B3
:1015B00043F2E812C1F34231C0F60002515CC84068
:1015C0007047000010B543F60404C4F202046068DA
:1015D00000F00C0008280BD0042819BF42F200408C
:1015E000C0F2F40041F60030C0F2B70010BD00BFF9
:1015F000206821682368490241F60031C0F2B70132
:1016000000F03F02C3F388105CBF42F20041C0F219
:10161000F401A1FB00010023FEF738FE216802223D
:10162000C1F3014102EB4101B0FBF1F010BD00003C
:101630002DE9F04182B0002868D00446007843F6D6
:101640000006C007C4F202060BD0B06800F00C0020
:10165000042840F09F803068800302D5606800282D
:1016600054D0207880071AD5B06810F00C0F09D03C
:10167000B06800F00C00082840F0A68070684002B6
:1016800000F1A2803068800702D5E06801283DD1D2
:101690003068216920F0F80040EAC100306020780D
:1016A000000737D4207840074CD4A56955B3B068FB
:1016B00000F00C00082840F0BB80012D26D0706897
:1016C000E16900F480028A4220D1216A00F03F02E1
:1016D0008A421BD147F6C071626A0140B1EB821F9A
:1016E00014D1A16A4FF6FF73C903994300F4403245
:1016F000A1F580318A4209D1E16A00F07060B0EB57
:10170000016F03D1002002B0BDE8F081012002B0DA
:10171000BDE8F0816069002840F20000C4F2472073
:1017200076D00121C0F8801EFFF776FD054600BF88
:10173000706F8007B6D4FFF76FFD401B0228F7D902
:10174000DDE000BF306C10F080580AD1002001901D
:10175000306C40F080503064306C00F0805001906C
:10176000019847F20007C4F200073868C00541D469
:10177000386840F480703860FFF74EFD054600BFC2
:101780003868C00536D4FFF747FD401B0228F7D95B
:10179000B5E000BFB06800F00C00082803D1706805
:1017A00040023FF558AF6068B0F5803F07D0B0F514
:1017B000A02F40F08D80306840F480203060306889
:1017C00040F4803030608DE0E068002852D0002086
:1017D000C4F2472001210160FFF71EFD054600BF4E
:1017E000306880073FF554AFFFF716FD401B022815
:1017F000F6D984E0A068012805D005284ED1306FC5
:1018000040F004003067306F40F0010030674FE077
:101810000021C0F8801EFFF7FFFC0546706F8007AF
:101820007FF540AFFFF7F8FC401B0228F6D966E0D1
:101830000027C4F2472700203866FFF7EDFC022D91
:1018400005460BD1306880015ED5FFF7E5FC401BF3
:1018500002284FF00300F5D955E700BF306880013A
:101860007FF550AFFFF7D8FC401B02284FF0030074
:10187000F4D948E70020C4F2472000210160FFF7B7
:10188000CBFC0546306880077FF509AFFFF7C4FC45
:10189000401B02284FF00300F4D934E7316F0028D1
:1018A00021F001013167316F21F0040131674DD022
:1018B000FFF7B2FC054641F2883700BF306F800762
:1018C00056D4FFF7A9FC401BB842F7D917E000BF78
:1018D0003168002821F480313160316821F48021A1
:1018E00031604FD0FFF798FC054600BF3068800399
:1018F0003FF5B7AEFFF790FC401B6428F6D90320F4
:1019000002B0BDE8F08100BF04F11C052FCD0843F3
:1019100040EA8210D9034FF6FF729143A1F580315E
:1019200040EA05600843706001203866FFF774FCE8
:10193000044600BF306880013FF5E4AEFFF76CFC61
:10194000001B02284FF00300F4D9DCE6FFF764FC2B
:10195000054641F2883700BF306F800708D5FFF792
:101960005BFC401BB8424FF00300F5D9CBE600BF4B
:10197000B8F1000F7FF499AE306C20F080503064E5
:1019800093E600BFFFF748FC054600BF30688003C0
:101990007FF567AEFFF740FC401B64284FF0030063
:1019A000F4D9B0E6411E0020B0EB116F1CBF01203E
:1019B00070474EF21002CEF2000251604EF62351F3
:1019C000CEF20001F0230B70072190601160704788
:1019D000704700007047000010B590F83C20012AC5
:1019E0004FF0020251D080F83D200268D2F804E0A6
:1019F000D2F808C00C682EF07003234341F2FF7444
:101A0000C4F20004A24253600EDC40F2FF73C4F241
:101A100000039A4216DCB2F1804F2BD040F2004313
:101A2000C4F2000324E000BF40F2FF33C4F201031C
:101A30009A4213DC41F60003C4F200039A4219D023
:101A4000002313E040F60003C4F200039A4211D0D1
:101A500040F60043C4F200030AE000BF44F2000372
:101A6000C4F201039A4205D040F20043C4F20103DC
:101A70009A4204D149682CF08003194391600121F6
:101A8000002280F83D1080F83C20104610BD000078
:101A9000002804BF0120704710B5044690F83D00AF
:101AA00028B9002084F83C00204600F01FF80220EE
:101AB00084F83D002068211D00F02EFE012084F8EE
:101AC000460084F83E0084F83F0084F8400084F823
:101AD000410084F8420084F8430084F8440084F80C
:101AE000450084F83D00002010BD000080B582B0A4
:101AF000006841F20001C4F2000188421CBF02B03C
:101B000080BD0020019043F64000C4F2020001684D
:101B1000002241F0100101600068002100F0100077
:101B2000019001983620FFF7FBFB362002B0BDE89C
:101B30008040FFF7E1BB000090F83D1001291CBF79
:101B400001207047022180F83D10006841F2FF72C9
:101B5000C168C4F20002904241F00101C1600DDC95
:101B600040F2FF71C4F20001884215DCB0F1804FF1
:101B70002AD040F20041C4F2000123E040F2FF31DC
:101B8000C4F20101884213DC41F60001C4F20001F5
:101B9000884219D0002113E040F60001C4F2000190
:101BA000884211D040F60041C4F200010AE000BFB3
:101BB00044F20001C4F20101884205D040F2004124
:101BC000C4F20101884206D1816801F007010629AB
:101BD00004BF00207047016841F00101016000204E
:101BE000704700007047000070B504460068C56883
:101BF0000669B10716D515F0020113D06FF0020186
:101C00000161012121778069800703D02046FFF719
:101C1000E9FF05E0204600F08FF8204600F08EF83E
:101C200000202077700719D515F0040016D0206821
:101C30006FF00401016102212177806910F4407F77
:101C400004D02046FFF7CEFF06E000BF204600F09C
:101C500073F8204600F072F800202077300717D57F
:101C600015F0080014D020686FF00801016104210C
:101C70002177C069800703D02046FFF7B3FF05E056
:101C8000204600F059F8204600F058F80020207750
:101C9000F00619D515F0100016D020686FF010016D
:101CA000016108212177C06910F4407F04D02046EB
:101CB000FFF798FF06E000BF204600F03DF8204601
:101CC00000F03CF800202077F00718BF15F0010065
:101CD00002D1300609D412E020686FF001010161E1
:101CE000204600F02DF8300609D515F0800006D00A
:101CF00020686FF0800101612046FFF769FE7006E1
:101D000009D515F0400006D020686FF04001016150
:101D1000204600F045F8B00658BF70BD15F0200011
:101D200008D021686FF0200220460A61BDE87040AB
:101D3000FFF750BE70BD0000704700007047000004
:101D4000B0B5006841F20001C4F20001884218BF3A
:101D5000B0BD40F2980540F2D010C2F20005C2F2C8
:101D600000002946042200F081FB40F23C21C2F22F
:101D700000014FF400700860082040F25422002453
:101D80000861C2F2000240F2A000C1E902442B1D2A
:101D9000C2F200005480BDE8B040FEF797BB0000DF
:101DA000704700007047000070470000B0B582B077
:101DB000044600680168C368426901F02F05202DC0
:101DC00003F0200506D12DB1204602B0BDE8B04099
:101DD00000F04EBD5FEA017C1EBF02F0010E03F46D
:101DE000907212EB0E0253D1226B012A05D111F031
:101DF000100218BF13F0100236D10A0622D513F0D4
:101E000080021FD094F8411021293FD1A168B1F57B
:101E1000805F03D12169002900F07282216A4A1C87
:101E2000226209784160E18C01390A04E1842DD1F4
:101E3000C16821F08001C160C16841F04001C1600A
:101E400002B0B0BD490621D513F040011ED0C168D3
:101E500021F04001C1602021204684F8411002B0E9
:101E6000BDE8B04000F01EBB002101910168019166
:101E70004168019101994069400613D4A08DE18D1C
:101E8000E28D002A18BF884240F0BC8102B0B0BD8C
:101E9000CA0718BF13F4807240F0B8804A0700F1F7
:101EA000BB80C0E0E06B016849688AB2002AEDD0CF
:101EB000A38D9A42EAD2E185C069B0F5807F00F037
:101EC0009C80206850E8030F216820F4807041E86E
:101ED0000302DAB1206850E8030F216820F4807013
:101EE00041E8030292B1206850E8030F216820F412
:101EF000807041E803024AB1206850E8030F21686E
:101F000020F4807041E80302002ADAD1206850E80A
:101F1000050F216820F0010041E80502DAB12068D0
:101F200050E8050F216820F0010041E8050292B158
:101F3000206850E8050F216820F0010041E8050203
:101F40004AB1206850E8050F216820F0010041E8FF
:101F50000502002ADAD1206850E8050F216820F038
:101F6000400041E80502DAB1206850E8050F216819
:101F700020F0400041E8050292B1206850E8050FCA
:101F8000216820F0400041E805024AB1206850E88D
:101F9000050F216820F0400041E80502002ADAD14F
:101FA000202084F8420000202063206850E8030FBE
:101FB000216820F0100041E80302DAB1206850E8FF
:101FC000030F216820F0100041E8030292B120685D
:101FD00050E8030F216820F0100041E803024AB1E5
:101FE000206850E8030F216820F0100041E8030248
:101FF000002ADAD1E06BFEF74FFE02206063A08D6D
:10200000E18D401A81B2204675E100BF626C42F05A
:10201000010262644A0706D5BEF1000F03D0626C6C
:1020200042F0020262648A0706D5BEF1000F03D0B7
:10203000626C42F004026264BCF1000F09D545EA0B
:102040000E02B2FA82F2520903D1626C42F0080227
:102050006264626C002A3FF419AF11F0200118BFCE
:10206000002D03D0204600F003FC20684069616C1D
:1020700000F0400001F00801401800F0B58000BFFA
:10208000206850E8030F216820F4907041E80302B3
:10209000BAB3206850E8030F216820F4907041E83B
:1020A000030272B3206850E8030F216820F4907097
:1020B00041E803022AB3206850E8030F216820F4A6
:1020C000907041E80302002ADAD11AE0206850E853
:1020D000050F216820F0010041E80502DAB120680F
:1020E00050E8050F216820F0010041E8050292B197
:1020F000206850E8050F216820F0010041E8050242
:102100004AB1206850E8050F216820F0010041E83D
:102110000502002ADAD1206B012824D1206850E87A
:10212000030F216820F0100041E80302DAB12068B3
:1021300050E8030F216820F0100041E8030292B13B
:10214000206850E8030F216820F0100041E80302E6
:102150004AB1206850E8030F216820F0100041E8E0
:102160000302002ADAD1202084F8420000202063F4
:102170002068406940063FD5206850E8050F216877
:1021800020F0400041E80502DAB1206850E8050F70
:10219000216820F0400041E8050292B1206850E833
:1021A000050F216820F0400041E805024AB120688F
:1021B00050E8050F216820F0400041E80502002AA0
:1021C000DAD1E06BC0B142F66501C0F600010165ED
:1021D000FEF7AAFD00283FF459AEE06B016D02B096
:1021E000BDE8B040084700BF2046FFF7DDFD0020F6
:1021F000606402B0B0BD00BF204602B0BDE8B04090
:10220000FFF7D2BD401A216851E8031F226821F46C
:10221000907142E80313DBB1216851E8031F226883
:1022200021F4907142E8031393B1216851E8031F30
:10223000226821F4907142E803134BB1216851E800
:10224000031F226821F4907142E80313002BDAD1B6
:10225000216851E8051F226821F0010142E80513B9
:10226000DBB1216851E8051F226821F0010142E835
:10227000051393B1216851E8051F226821F001017F
:1022800042E805134BB1216851E8051F226821F08F
:10229000010142E80513002BDAD1202184F8421015
:1022A00000212163216851E8031F226821F01001F9
:1022B00042E80313DBB1216851E8031F226821F0D3
:1022C000100142E8031393B1216851E8031F22680B
:1022D00021F0100142E803134BB1216851E8031FBC
:1022E000226821F0100142E80313002BDAD1022208
:1022F00081B22046626302B0BDE8B040FFF752BD34
:10230000216A31F8022B6FF35F22426021628AE575
:10231000002804BF0120704710B5044690F8410022
:1023200028B9002084F84000204600F021F824203D
:1023300084F841002068C16821F40051C160204642
:1023400000F016FB2068016921F4904101614169A8
:1023500021F02A014161C16841F40051C1600020AF
:102360002021606484F8411084F84210606310BD3D
:102370002DE9F04385B00446016841F20040C4F203
:102380000100814202D005B0BDE8F083002643F68B
:1023900030010096C4F202014A6946F2284842F030
:1023A00020024A614A6900F5823002F02002009260
:1023B000009A00960A68C4F2020842F040020A60DD
:1023C000096801F04001009100994FF484410091A7
:1023D0000221CDE9011603210391082104916946E8
:1023E000FEF746FE40F2C805C2F200054FF0206736
:1023F0004FF480692846C5E90087C5E90266C5E94A
:102400000496C5E90666C5E90866FEF77FFD002863
:1024100018BFFEF73FF8E563AC6340F2281508F1FA
:102420007800C2F200054021C5E9000705F1080067
:1024300080E842022846C5E90566C5E907666E627E
:10244000FEF764FD002818BFFEF724F8472000219E
:102450000022A563AC63FEF763FF4720FEF74CFF45
:1024600005B0BDE8F083000070470000034690F817
:10247000410020281CBF0220704700294FF00100B6
:1024800018BF002A00D170471962002021219A84C8
:10249000DA84586483F841101968CA6842F08002EF
:1024A000CA60704770470000FEE7000080B540F248
:1024B000A00046F20041C2F20000C4F20001032273
:1024C000002380E80E0000F10C014FF4302C4FF493
:1024D000801E81E808504FF480710183C0F81A30E3
:1024E000FEF784FA002808BF80BDBDE88040FDF7F4
:1024F000D1BF000080B582B00020019043F63000CB
:10250000C4F202000168002241F480010160006809
:10251000002100F48000019001983920FEF700FFAF
:102520003920FEF7E9FE452000210022FEF7F8FEE3
:10253000452002B0BDE88040FEF7DEBE81B000203D
:1025400043F630010090C4F202010A6842F04002F2
:102550000A600A6802F040020092009A00900A683D
:1025600042F001020A600A6802F001020092009A39
:1025700000900A6842F008020A600A6802F0080245
:102580000092009A0090086840F080000860086897
:1025900000F080000090009801B0704780B582B0D4
:1025A00040F2881041F200020021C2F20000C4F2A1
:1025B00000024EF660234FF01E0CCDE90011C0E979
:1025C0000023C0E9021C8161FFF762FA002818BFEE
:1025D000FDF760FF40F28810C2F200006946FFF785
:1025E000FBF9002818BFFDF755FF02B080BD0000C1
:1025F00080B540F2D01041F20041C2F20000C4F2B6
:10260000010100234FF00C0C4FF4E13280E80E0082
:10261000C0E90333C0E905C3C361FFF779FE0028B1
:1026200008BF80BDBDE88040FDF734BFFEE7000075
:10263000FEE700007047000070470000FEF7F2BDA3
:1026400080B592B0002043F64001CDE90A00CDE903
:1026500008000590CDE90300CDE901000090C4F227
:1026600002010A6842F080520A60096801F0805154
:1026700000910099009047F20000C4F20000016848
:1026800041F44041016000684FF4800100F4404093
:1026900000900098012006904FF480300D910621A3
:1026A000079002200E91B4210C90CDE90F10042068
:1026B000119006A8FEF7BCFF10B172B6FEE700BF8E
:1026C000FEF76AFE10B172B6FEE700BF0F20019060
:1026D00002200290002003904FF4A05004904FF489
:1026E0008050059001A80521FEF794FE10B172B646
:1026F000FEE700BF12B080BD4EF68850CEF200005B
:10270000016841F4700101607047000040F28810D8
:10271000C2F20000FFF768BA10B540F6FF3E03684A
:10272000C4F2000E40F2004C7045C4F2010C27DCEC
:10273000B0F1804F31D040F20042C4F2000290422A
:102740002BD040F60002C4F20002904225D041F6A0
:10275000FF72C4F20002904229DC70453CDCB0F10B
:10276000804F5FD040F20042C4F20002904259D044
:1027700040F60002C4F20002904253D056E000BF7F
:1027800040F60042C4F20002904206D0604504D0F8
:102790000022C4F201029042D9D14A6823F07003AA
:1027A000134341F6FF72C4F200029042D5DD43F6B6
:1027B000FF72C4F20102904222DC42F20002C4F233
:1027C000000290422ED00022C4F20102904229D091
:1027D000604527D02AE000BF40F60042C4F2000264
:1027E00090421FD041F60002C4F20002904219D07C
:1027F00041F60042C4F20002904213D016E000BF3E
:1028000044F20002C4F2010290420BD044F60002EE
:10281000C4F20102904205D044F20042C4F2010227
:10282000904203D1CA6823F44073134323F080021B
:102830004B69D1F800E08C681A430260C46240F42E
:102840008062C0F828E0624504BF09690163012184
:1028500041610169C90708BF10BD016921F001018B
:10286000016110BD806B0021C185C184FFF79CBA56
:1028700081B090F84210222921D183680246B3F535
:10288000805F09D152F8281F52F8183C002B63D002
:1028900003685B680AE000BF52F8281F13B9036998
:1028A000002BF5D003685B6803F07F030B701168A1
:1028B00001311160C18D01390A04C18502D001B016
:1028C000704700BF0168CA6822F02002CA60CA6867
:1028D00022F48072CA604A6922F001024A61202112
:1028E00080F8421000214163026B012A3CD1016350
:1028F000016851E8031F026821F0100142E8031348
:10290000DBB1016851E8031F026821F0100142E8C1
:10291000031393B1016851E8031F026821F010010D
:1029200042E803134BB1016851E8031F026821F02C
:10293000100142E80313002BDAD101680A68D206BD
:1029400006D5002200920A68009249680091009919
:10295000818D01B0FFF726BA026852686FF35F22DB
:1029600021F8022B8162A5E701B0FFF77DBD0000D1
:1029700010B504460068D4E902C22369016921F454
:10298000405111430161626943EA0C01E36911435B
:10299000C268194349F20C639A431143C16041690B
:1029A000A26921F4407141F20043114340F4806276
:1029B000C4F201039A42416102D1FEF7EFFD01E04A
:1029C000FEF7D8FDE16963681922B1F5004FA0FB5D
:1029D000020123D15A00DB0FFDF758FC48F21F51CA
:1029E000C5F2EB11A0FB01235A094FF69C73C0F608
:1029F000FF7303F1805302FB0300322303EBC0009B
:102A0000A0FB01014FF4F87000EA111000EB021076
:102A1000C1F3421108442168886010BD9A009B0FE1
:102A2000FDF734FC48F21F51C5F2EB11A0FB012366
:102A30005A094FF69C73C0F6FF7302FB0300322362
:102A400003EB0010A0FB0101F02000EA511000EBA5
:102A50000210C1F3431108442168886010BD0000D2
:102A600040F2D010C2F20000FFF7A0B9FEE700006C
:102A70002DE9F04381B02DED068B90ED05AA0446BB
:102A800080ED06AA90ED008A90ED039A08784E78C2
:102A90000D4600F08FF907463046884600F08AF967
:102AA0009FED390B0646894653EC102B38464146BC
:102AB00000F094F932464B4600F0D4F89FED340B09
:102AC00053EC102B00F08AF900F09AF860616988E5
:102AD0009FED312A49BA00EE101AB8EEC00A84ED13
:102AE000080AA98801EE100A49BA00EE101AB8EED9
:102AF000C00A84ED090AA9793AEE022A00EE101AFA
:102B0000B8EE400A84ED0A0A9FED240A31EE4A3AF3
:102B100033EE004AB4EE412AF1EE10FAB8BFB0EE3F
:102B2000434A24EE082A32EE091AB4EE401AF1EEB6
:102B300010FA84ED074A84ED031A84ED042A09DAB9
:102B4000B5EE401AF1EE10FA12DBBDEC068B01B0C7
:102B5000BDE8F0839FED122AA06831EE021A013021
:102B600084ED031AA060B5EE401AF1EE10FAECDA2B
:102B7000A06831EE000A013884ED030AA060BDECC4
:102B8000068B01B0BDE8F08300000000000070403B
:102B9000012DA005B480A63F000034C30000B4435B
:102BA0000000B4C38AB0FEF74BFBFFF749FDFFF707
:102BB000C5FCFFF79FFCFFF779FCFFF719FDFFF756
:102BC000EDFC40F28810C2F20000FEF7B5FF6C4643
:102BD00020462821FDF7D2FB40F2A0050120C2F2D9
:102BE0000005CDE9070028462146FDF7C3FC28462D
:102BF000FEF716F828460221FDF750FCFEE700001C
:102C000021F0004201F00043A2F16052B2F5801FB2
:102C100028BFD2F17F6C0BD95FEA001C43EAC202E5
:102C200042EB507018BF704728BF20F0010070477A
:102C3000B2F5801FBCBF184670474FEA410C1CF527
:102C4000001F02D2084600F0C2BA70B500F070F959
:102C500000000089FFF7F6BF4FF00040A0F58000AC
:102C60007047000010B591EA030F48BF83F000439E
:102C700000F1BA81841A71EB030C05D2121943EBEF
:102C80000C03001B61EB0C014FEA1154A4EB135C25
:102C9000DFF81CE11EEA430F18BF9EEA445F00F014
:102CA000748021EA045123EA0E0343F48013DCF11B
:102CB000200E32D322FA0CFE10EB0E0023FA0CFE8B
:102CC00041EB0E01CCF1200E03FA0EFE10EB0E00CC
:102CD000CCF1200E51F10001B1F5801F32D201EB91
:102CE000045112FA0EF2BDE8104058BF7047401C64
:102CF00038BF5FEA420218BF7047002814BF20F0B7
:102D0000010041F100014FEA410313F5001F38BFF4
:102D10007047A1F1C04100F059B9012A43EB030209
:102D2000ACF1200CDCF11F0E32BF4FF0000E23FA85
:102D30000CF310EB030041EB0451B4EB115FD0D066
:102D4000A1EB045101F58011490801EB04515FEA40
:102D500030000ED350F1000038BF12FA0EFE08D139
:102D6000BDE81040C9E7401C38BF5FEA4202CAD143
:102D7000C3E7BDE810404FEA410313F5001F38BF19
:102D80007047A1F1C04100F021B99EEA445F08D02C
:102D900011EA5E0FBDE8104004BF01F000410020C1
:102DA0007047BDE8104070B500F0C2F864FBBE3E4D
:102DB0000000E0FFB0FA80F310FA03F10AD0C3F18B
:102DC0001D0303F580634FEA03524FEA415002EBC3
:102DD000D12170474FF000007047000070B5DFF858
:102DE00048C11CEA111E1EBF1CEA13159EEA0C0FF7
:102DF00095EA0C0F00F06F8081EA03044EEAD47E5E
:102E0000AE4421EA4C1123EA4C1341F4801143F4FF
:102E10008013AEF17F7EA1FB024CA0FB0365361947
:102E200055EB0C05A1FB034C4CF10003A0FB021C6D
:102E300016EB0C06654153F10003094218BF46F03A
:102E4000010613F4007F0BD14FEA03314FEA05303E
:102E500041EA155140EA165034036FF003020AE0CC
:102E60004FEAC3214FEAC52041EA555140EA565086
:102E7000F4026FF0020202EB2E4201EB025585EAEA
:102E8000CE710AD05FEA440C18BF24F0004450F120
:102E9000000041F1000120EAD47040F2FE7C62455E
:102EA00000D270BDA84214BF4FF080444FF04044A0
:102EB000002E08BF0024BEF1806FA8BFA1F1C04161
:102EC000BDE8704080F2828001F1C04101F0004114
:102ED0004FF0000070470CEA13159EEA0C0F18BF64
:102EE00095EA0C0F06D081EA030E4FF000000EF0B9
:102EF000004170BD00F01CF88900013E00F007B8E9
:102F000000F009B84FEA430C5FEA5C5C08D081EA44
:102F1000030100F05BB84FEA410C5FEA5C5CF6D15C
:102F200002494FF0000070470000FF070000F87FE3
:102F30000EF1020E2EF0030E5EF8046B364205D43D
:102F4000012A43EB030515F5001F12D8012841EBB8
:102F5000010C1CF5001F0CD80ED14FEAD17C0CEBF4
:102F60004C0C0CF1020C15F5001F08BF4CEBD37C88
:102F700004E04FF0080C01E04FEAD37C0CEB4C0569
:102F800026FA05F606F00706B6F1040C06D20EEB9B
:102F9000860CBDE870404CF0010C6047DFE80CF097
:102FA000090B02024FF00041A1F500214FF0000093
:102FB00070BD19461046012851EB010418BFD4F525
:102FC000001484BF002001F0004170BD0808A0F586
:102FD00000114FEA3101704710B591EA030F48BF65
:102FE00083F000433FF546AE841A71EB030C07D221
:102FF0008CF0004C121943EB0C03001B61EB0C012D
:103000004FEA1154A4EB135CDFF8A4E11EEA430F6E
:1030100018BF9EEA445F00F0B48021EA045123EA1D
:103020006E035242C3EB6E0338BF5B1EDCF1200E11
:1030300025D322FA0CFE10EB0E0043FA0CFE41EBF6
:103040000E01CCF1200E03FA0EFE10EB0E00CCF1B7
:10305000200E51F1000129D401EB045112FA0EF2B5
:10306000BDE8104058BF7047401C1CBFB2F1004F74
:10307000704700280CBF491C20F00100704712EB7C
:10308000020E43EB030218BF4FF0010E4EEA42025C
:10309000ACF1200CDCF11E0E56D943FA0CFE10EBFD
:1030A0000E00CCF11E0E51F1FF31D5D50EF1010EFF
:1030B00012FA0EFE404141EB010101EB445C5FEA74
:1030C0005C5C10D901EB045110EBDE7038BFBEF12F
:1030D000004FBDE8104018BF704700280CBF491CC6
:1030E00020F00100704734D24FEAD42C24F400645D
:1030F00011F500111BD0B1FA81F20B3AA41AA41EEB
:10310000D2F12003914030FA03F31943904001EBD0
:10311000CC7101EB0451002CBDE81040A8BF7047F2
:1031200001F1C04101F000414FF000007047B0FADA
:1031300080F310FA03F102D1BDE810407047E41AA1
:10314000173C4805C90AE2E701EB0451BDE810400D
:10315000704749104FEA300001EB0451BDE81040C0
:1031600002E04FF0000170474A0008BF0042F8D06B
:10317000B2F5001F28BF704701F000414FF000007A
:1031800070479EEA445F07D011EA5E0FBDE8104029
:1031900004BF002100207047BDE8104070B5FFF764
:1031A000C7FE00BF40DFF63E104683F00041704787
:1031B0000000E0FFF1EE100A4FF6FF71C0F2C031DF
:1031C00020EA010040F04070E1EE100A7047FF2154
:1031D00041EAD050C0057047000000000000000028
:1031E00001020304060708090000000001020304AD
:1031F0000006101600061016183200080000002005
:1032000038000000E80100085032000838000020B3
:103210002832000004020008010000001000000035
:103220000024F400000098410000000000000000AD
:10323000000000000000000000000000000000008E
:10324000000000000000000000000000000000007E
:04000005080001AD41
:00000001FF
